{
  "_format": "hh-sol-artifact-1",
  "contractName": "DeBlog",
  "sourceName": "contracts/DeBlog.sol",
  "abi": [
    {
      "inputs": [],
      "stateMutability": "nonpayable",
      "type": "constructor"
    },
    {
      "anonymous": false,
      "inputs": [
        {
          "indexed": false,
          "internalType": "uint256",
          "name": "blogId",
          "type": "uint256"
        },
        {
          "indexed": false,
          "internalType": "address",
          "name": "owner",
          "type": "address"
        },
        {
          "indexed": false,
          "internalType": "string",
          "name": "blogTitle",
          "type": "string"
        },
        {
          "indexed": false,
          "internalType": "string",
          "name": "subTitle",
          "type": "string"
        },
        {
          "indexed": false,
          "internalType": "string",
          "name": "authorName",
          "type": "string"
        },
        {
          "indexed": false,
          "internalType": "string",
          "name": "blogContent",
          "type": "string"
        },
        {
          "indexed": false,
          "internalType": "uint256",
          "name": "blogUploaded",
          "type": "uint256"
        },
        {
          "indexed": false,
          "internalType": "string",
          "name": "coverImage",
          "type": "string"
        }
      ],
      "name": "BlogAdded",
      "type": "event"
    },
    {
      "inputs": [],
      "name": "getAllblogs",
      "outputs": [
        {
          "components": [
            {
              "internalType": "uint256",
              "name": "blogId",
              "type": "uint256"
            },
            {
              "internalType": "address",
              "name": "blogOwner",
              "type": "address"
            },
            {
              "internalType": "string",
              "name": "blogTitle",
              "type": "string"
            },
            {
              "internalType": "string",
              "name": "subTitle",
              "type": "string"
            },
            {
              "internalType": "string",
              "name": "authorName",
              "type": "string"
            },
            {
              "internalType": "string",
              "name": "blogContent",
              "type": "string"
            },
            {
              "internalType": "uint256",
              "name": "timestamp",
              "type": "uint256"
            },
            {
              "internalType": "string",
              "name": "coverImage",
              "type": "string"
            }
          ],
          "internalType": "struct DeBlog.Blog[]",
          "name": "",
          "type": "tuple[]"
        }
      ],
      "stateMutability": "view",
      "type": "function"
    },
    {
      "inputs": [
        {
          "internalType": "uint256",
          "name": "blogId_",
          "type": "uint256"
        },
        {
          "internalType": "string",
          "name": "blogTitle_",
          "type": "string"
        },
        {
          "internalType": "string",
          "name": "subTitle_",
          "type": "string"
        },
        {
          "internalType": "string",
          "name": "authorName_",
          "type": "string"
        },
        {
          "internalType": "string",
          "name": "blogContent_",
          "type": "string"
        },
        {
          "internalType": "string",
          "name": "coverImage_",
          "type": "string"
        }
      ],
      "name": "newBlog",
      "outputs": [],
      "stateMutability": "payable",
      "type": "function"
    },
    {
      "inputs": [
        {
          "internalType": "address payable",
          "name": "blogOwner_",
          "type": "address"
        }
      ],
      "name": "tipToOwner",
      "outputs": [],
      "stateMutability": "payable",
      "type": "function"
    }
  ],
  "bytecode": "0x608060405234801561001057600080fd5b50336000806101000a81548173ffffffffffffffffffffffffffffffffffffffff021916908373ffffffffffffffffffffffffffffffffffffffff160217905550610e1f806100606000396000f3fe6080604052600436106100345760003560e01c8063412e1e4e146100395780638d2a657f146100645780639c40af7414610080575b600080fd5b34801561004557600080fd5b5061004e61009c565b60405161005b9190610964565b60405180910390f35b61007e600480360381019061007991906109d8565b610440565b005b61009a60048036038101906100959190610b66565b61048a565b005b60606001805480602002602001604051908101604052809291908181526020016000905b82821015610437578382906000526020600020906008020160405180610100016040529081600082015481526020016001820160009054906101000a900473ffffffffffffffffffffffffffffffffffffffff1673ffffffffffffffffffffffffffffffffffffffff1673ffffffffffffffffffffffffffffffffffffffff16815260200160028201805461015490610cae565b80601f016020809104026020016040519081016040528092919081815260200182805461018090610cae565b80156101cd5780601f106101a2576101008083540402835291602001916101cd565b820191906000526020600020905b8154815290600101906020018083116101b057829003601f168201915b505050505081526020016003820180546101e690610cae565b80601f016020809104026020016040519081016040528092919081815260200182805461021290610cae565b801561025f5780601f106102345761010080835404028352916020019161025f565b820191906000526020600020905b81548152906001019060200180831161024257829003601f168201915b5050505050815260200160048201805461027890610cae565b80601f01602080910402602001604051908101604052809291908181526020018280546102a490610cae565b80156102f15780601f106102c6576101008083540402835291602001916102f1565b820191906000526020600020905b8154815290600101906020018083116102d457829003601f168201915b5050505050815260200160058201805461030a90610cae565b80601f016020809104026020016040519081016040528092919081815260200182805461033690610cae565b80156103835780601f1061035857610100808354040283529160200191610383565b820191906000526020600020905b81548152906001019060200180831161036657829003601f168201915b50505050508152602001600682015481526020016007820180546103a690610cae565b80601f01602080910402602001604051908101604052809291908181526020018280546103d290610cae565b801561041f5780601f106103f45761010080835404028352916020019161041f565b820191906000526020600020905b81548152906001019060200180831161040257829003601f168201915b505050505081525050815260200190600101906100c0565b50505050905090565b8073ffffffffffffffffffffffffffffffffffffffff166108fc349081150290604051600060405180830381858888f19350505050158015610486573d6000803e3d6000fd5b5050565b60016040518061010001604052808881526020013373ffffffffffffffffffffffffffffffffffffffff1681526020018781526020018681526020018581526020018481526020014281526020018381525090806001815401808255809150506001900390600052602060002090600802016000909190919091506000820151816000015560208201518160010160006101000a81548173ffffffffffffffffffffffffffffffffffffffff021916908373ffffffffffffffffffffffffffffffffffffffff1602179055506040820151816002019080519060200190610572929190610640565b50606082015181600301908051906020019061058f929190610640565b5060808201518160040190805190602001906105ac929190610640565b5060a08201518160050190805190602001906105c9929190610640565b5060c0820151816006015560e08201518160070190805190602001906105f0929190610640565b5050507ff76b845756c01f514c26bb0eee9691310b2aade3b8216a606037b6a4050221f68633878787874288604051610630989796959493929190610d48565b60405180910390a1505050505050565b82805461064c90610cae565b90600052602060002090601f01602090048101928261066e57600085556106b5565b82601f1061068757805160ff19168380011785556106b5565b828001600101855582156106b5579182015b828111156106b4578251825591602001919060010190610699565b5b5090506106c291906106c6565b5090565b5b808211156106df5760008160009055506001016106c7565b5090565b600081519050919050565b600082825260208201905092915050565b6000819050602082019050919050565b6000819050919050565b6107228161070f565b82525050565b600073ffffffffffffffffffffffffffffffffffffffff82169050919050565b600061075382610728565b9050919050565b61076381610748565b82525050565b600081519050919050565b600082825260208201905092915050565b60005b838110156107a3578082015181840152602081019050610788565b838111156107b2576000848401525b50505050565b6000601f19601f8301169050919050565b60006107d482610769565b6107de8185610774565b93506107ee818560208601610785565b6107f7816107b8565b840191505092915050565b60006101008301600083015161081b6000860182610719565b50602083015161082e602086018261075a565b506040830151848203604086015261084682826107c9565b9150506060830151848203606086015261086082826107c9565b9150506080830151848203608086015261087a82826107c9565b91505060a083015184820360a086015261089482826107c9565b91505060c08301516108a960c0860182610719565b5060e083015184820360e08601526108c182826107c9565b9150508091505092915050565b60006108da8383610802565b905092915050565b6000602082019050919050565b60006108fa826106e3565b61090481856106ee565b935083602082028501610916856106ff565b8060005b85811015610952578484038952815161093385826108ce565b945061093e836108e2565b925060208a0199505060018101905061091a565b50829750879550505050505092915050565b6000602082019050818103600083015261097e81846108ef565b905092915050565b6000604051905090565b600080fd5b600080fd5b60006109a582610728565b9050919050565b6109b58161099a565b81146109c057600080fd5b50565b6000813590506109d2816109ac565b92915050565b6000602082840312156109ee576109ed610990565b5b60006109fc848285016109c3565b91505092915050565b610a0e8161070f565b8114610a1957600080fd5b50565b600081359050610a2b81610a05565b92915050565b600080fd5b600080fd5b7f4e487b7100000000000000000000000000000000000000000000000000000000600052604160045260246000fd5b610a73826107b8565b810181811067ffffffffffffffff82111715610a9257610a91610a3b565b5b80604052505050565b6000610aa5610986565b9050610ab18282610a6a565b919050565b600067ffffffffffffffff821115610ad157610ad0610a3b565b5b610ada826107b8565b9050602081019050919050565b82818337600083830152505050565b6000610b09610b0484610ab6565b610a9b565b905082815260208101848484011115610b2557610b24610a36565b5b610b30848285610ae7565b509392505050565b600082601f830112610b4d57610b4c610a31565b5b8135610b5d848260208601610af6565b91505092915050565b60008060008060008060c08789031215610b8357610b82610990565b5b6000610b9189828a01610a1c565b965050602087013567ffffffffffffffff811115610bb257610bb1610995565b5b610bbe89828a01610b38565b955050604087013567ffffffffffffffff811115610bdf57610bde610995565b5b610beb89828a01610b38565b945050606087013567ffffffffffffffff811115610c0c57610c0b610995565b5b610c1889828a01610b38565b935050608087013567ffffffffffffffff811115610c3957610c38610995565b5b610c4589828a01610b38565b92505060a087013567ffffffffffffffff811115610c6657610c65610995565b5b610c7289828a01610b38565b9150509295509295509295565b7f4e487b7100000000000000000000000000000000000000000000000000000000600052602260045260246000fd5b60006002820490506001821680610cc657607f821691505b60208210811415610cda57610cd9610c7f565b5b50919050565b610ce98161070f565b82525050565b610cf881610748565b82525050565b600082825260208201905092915050565b6000610d1a82610769565b610d248185610cfe565b9350610d34818560208601610785565b610d3d816107b8565b840191505092915050565b600061010082019050610d5e600083018b610ce0565b610d6b602083018a610cef565b8181036040830152610d7d8189610d0f565b90508181036060830152610d918188610d0f565b90508181036080830152610da58187610d0f565b905081810360a0830152610db98186610d0f565b9050610dc860c0830185610ce0565b81810360e0830152610dda8184610d0f565b9050999850505050505050505056fea2646970667358221220365c832e4edbbe83ba1a1e93f31199c168393c8e439f47f0ca9415a7ff53239364736f6c634300080a0033",
  "linkReferences": {},
  "deployedLinkReferences": {}
}